{
  "contractName": "RentNft",
  "abi": [
    {
      "inputs": [],
      "stateMutability": "nonpayable",
      "type": "constructor"
    },
    {
      "anonymous": false,
      "inputs": [
        {
          "indexed": false,
          "internalType": "uint256",
          "name": "rentIndex",
          "type": "uint256"
        },
        {
          "indexed": true,
          "internalType": "address",
          "name": "nftAddress",
          "type": "address"
        },
        {
          "indexed": true,
          "internalType": "uint256",
          "name": "tokenId",
          "type": "uint256"
        },
        {
          "indexed": false,
          "internalType": "uint256",
          "name": "lentIndex",
          "type": "uint256"
        },
        {
          "indexed": true,
          "internalType": "address",
          "name": "borrower",
          "type": "address"
        },
        {
          "indexed": false,
          "internalType": "address",
          "name": "lender",
          "type": "address"
        },
        {
          "indexed": false,
          "internalType": "uint256",
          "name": "borrowedAt",
          "type": "uint256"
        },
        {
          "indexed": false,
          "internalType": "uint256",
          "name": "borrowPrice",
          "type": "uint256"
        },
        {
          "indexed": false,
          "internalType": "uint256",
          "name": "actualDuration",
          "type": "uint256"
        },
        {
          "indexed": false,
          "internalType": "uint256",
          "name": "nftPrice",
          "type": "uint256"
        }
      ],
      "name": "Borrowed",
      "type": "event"
    },
    {
      "anonymous": false,
      "inputs": [
        {
          "indexed": false,
          "internalType": "uint256",
          "name": "lentIndex",
          "type": "uint256"
        },
        {
          "indexed": true,
          "internalType": "address",
          "name": "nftAddress",
          "type": "address"
        },
        {
          "indexed": true,
          "internalType": "uint256",
          "name": "tokenId",
          "type": "uint256"
        },
        {
          "indexed": true,
          "internalType": "address",
          "name": "lender",
          "type": "address"
        },
        {
          "indexed": false,
          "internalType": "uint256",
          "name": "maxDuration",
          "type": "uint256"
        },
        {
          "indexed": false,
          "internalType": "uint256",
          "name": "dailyBorrowPrice",
          "type": "uint256"
        },
        {
          "indexed": false,
          "internalType": "uint256",
          "name": "nftPrice",
          "type": "uint256"
        }
      ],
      "name": "Lent",
      "type": "event"
    },
    {
      "anonymous": false,
      "inputs": [
        {
          "indexed": true,
          "internalType": "address",
          "name": "previousOwner",
          "type": "address"
        },
        {
          "indexed": true,
          "internalType": "address",
          "name": "newOwner",
          "type": "address"
        }
      ],
      "name": "OwnershipTransferred",
      "type": "event"
    },
    {
      "anonymous": false,
      "inputs": [
        {
          "indexed": false,
          "internalType": "uint256",
          "name": "lentIndex",
          "type": "uint256"
        },
        {
          "indexed": false,
          "internalType": "uint256",
          "name": "rentIndex",
          "type": "uint256"
        },
        {
          "indexed": true,
          "internalType": "address",
          "name": "nftAddress",
          "type": "address"
        },
        {
          "indexed": true,
          "internalType": "uint256",
          "name": "tokenId",
          "type": "uint256"
        },
        {
          "indexed": true,
          "internalType": "address",
          "name": "borrower",
          "type": "address"
        },
        {
          "indexed": false,
          "internalType": "address",
          "name": "lender",
          "type": "address"
        }
      ],
      "name": "Returned",
      "type": "event"
    },
    {
      "inputs": [
        {
          "internalType": "uint256",
          "name": "",
          "type": "uint256"
        }
      ],
      "name": "borrows",
      "outputs": [
        {
          "internalType": "address",
          "name": "borrower",
          "type": "address"
        },
        {
          "internalType": "uint256",
          "name": "listingIndex",
          "type": "uint256"
        },
        {
          "internalType": "uint256",
          "name": "actualDuration",
          "type": "uint256"
        },
        {
          "internalType": "uint256",
          "name": "borrowedAt",
          "type": "uint256"
        }
      ],
      "stateMutability": "view",
      "type": "function"
    },
    {
      "inputs": [
        {
          "internalType": "uint256",
          "name": "",
          "type": "uint256"
        }
      ],
      "name": "listings",
      "outputs": [
        {
          "internalType": "address",
          "name": "lender",
          "type": "address"
        },
        {
          "internalType": "address",
          "name": "nftAddress",
          "type": "address"
        },
        {
          "internalType": "uint256",
          "name": "tokenId",
          "type": "uint256"
        },
        {
          "internalType": "uint256",
          "name": "maxDuration",
          "type": "uint256"
        },
        {
          "internalType": "uint256",
          "name": "dailyBorrowPrice",
          "type": "uint256"
        },
        {
          "internalType": "uint256",
          "name": "nftPrice",
          "type": "uint256"
        },
        {
          "internalType": "address",
          "name": "token",
          "type": "address"
        },
        {
          "internalType": "bool",
          "name": "isBorrowed",
          "type": "bool"
        }
      ],
      "stateMutability": "view",
      "type": "function"
    },
    {
      "inputs": [
        {
          "internalType": "address",
          "name": "",
          "type": "address"
        },
        {
          "internalType": "address",
          "name": "",
          "type": "address"
        },
        {
          "internalType": "uint256",
          "name": "",
          "type": "uint256"
        },
        {
          "internalType": "bytes",
          "name": "",
          "type": "bytes"
        }
      ],
      "name": "onERC721Received",
      "outputs": [
        {
          "internalType": "bytes4",
          "name": "",
          "type": "bytes4"
        }
      ],
      "stateMutability": "nonpayable",
      "type": "function"
    },
    {
      "inputs": [],
      "name": "owner",
      "outputs": [
        {
          "internalType": "address",
          "name": "",
          "type": "address"
        }
      ],
      "stateMutability": "view",
      "type": "function"
    },
    {
      "inputs": [],
      "name": "renounceOwnership",
      "outputs": [],
      "stateMutability": "nonpayable",
      "type": "function"
    },
    {
      "inputs": [
        {
          "internalType": "address",
          "name": "newOwner",
          "type": "address"
        }
      ],
      "name": "transferOwnership",
      "outputs": [],
      "stateMutability": "nonpayable",
      "type": "function"
    },
    {
      "inputs": [
        {
          "internalType": "address",
          "name": "_nftAddress",
          "type": "address"
        },
        {
          "internalType": "uint256",
          "name": "_tokenId",
          "type": "uint256"
        },
        {
          "internalType": "uint256",
          "name": "_maxDuration",
          "type": "uint256"
        },
        {
          "internalType": "uint256",
          "name": "_dailyBorrowPrice",
          "type": "uint256"
        },
        {
          "internalType": "uint256",
          "name": "_nftPrice",
          "type": "uint256"
        },
        {
          "internalType": "address",
          "name": "_token",
          "type": "address"
        }
      ],
      "name": "lendOne",
      "outputs": [],
      "stateMutability": "nonpayable",
      "type": "function"
    },
    {
      "inputs": [
        {
          "internalType": "address[]",
          "name": "_nftAddresses",
          "type": "address[]"
        },
        {
          "internalType": "uint256[]",
          "name": "_tokenIds",
          "type": "uint256[]"
        },
        {
          "internalType": "uint256[]",
          "name": "_maxDurations",
          "type": "uint256[]"
        },
        {
          "internalType": "uint256[]",
          "name": "_dailyBorrowPrice",
          "type": "uint256[]"
        },
        {
          "internalType": "uint256[]",
          "name": "_nftPrices",
          "type": "uint256[]"
        },
        {
          "internalType": "address[]",
          "name": "_tokens",
          "type": "address[]"
        }
      ],
      "name": "lendMultiple",
      "outputs": [],
      "stateMutability": "nonpayable",
      "type": "function"
    },
    {
      "inputs": [
        {
          "internalType": "address",
          "name": "_borrower",
          "type": "address"
        },
        {
          "internalType": "uint256",
          "name": "_listingIndex",
          "type": "uint256"
        },
        {
          "internalType": "uint256",
          "name": "_actualDuration",
          "type": "uint256"
        }
      ],
      "name": "rentOne",
      "outputs": [],
      "stateMutability": "nonpayable",
      "type": "function"
    },
    {
      "inputs": [
        {
          "internalType": "address",
          "name": "_borrower",
          "type": "address"
        },
        {
          "internalType": "uint256[]",
          "name": "_listingIndexes",
          "type": "uint256[]"
        },
        {
          "internalType": "uint256[]",
          "name": "_actualDurations",
          "type": "uint256[]"
        }
      ],
      "name": "rentMultiple",
      "outputs": [],
      "stateMutability": "nonpayable",
      "type": "function"
    },
    {
      "inputs": [
        {
          "internalType": "uint256",
          "name": "_rentalIndex",
          "type": "uint256"
        }
      ],
      "name": "returnNftOne",
      "outputs": [],
      "stateMutability": "nonpayable",
      "type": "function"
    },
    {
      "inputs": [
        {
          "internalType": "uint256[]",
          "name": "_rentalIndexes",
          "type": "uint256[]"
        }
      ],
      "name": "returnNftMultiple",
      "outputs": [],
      "stateMutability": "nonpayable",
      "type": "function"
    },
    {
      "inputs": [
        {
          "internalType": "uint256",
          "name": "_rentalIndex",
          "type": "uint256"
        }
      ],
      "name": "claimCollateral",
      "outputs": [],
      "stateMutability": "nonpayable",
      "type": "function"
    },
    {
      "inputs": [
        {
          "internalType": "uint256",
          "name": "_listingIndex",
          "type": "uint256"
        }
      ],
      "name": "stopLending",
      "outputs": [],
      "stateMutability": "nonpayable",
      "type": "function"
    },
    {
      "inputs": [],
      "name": "getListingCount",
      "outputs": [
        {
          "internalType": "uint256",
          "name": "",
          "type": "uint256"
        }
      ],
      "stateMutability": "view",
      "type": "function"
    },
    {
      "inputs": [],
      "name": "getBorrowCount",
      "outputs": [
        {
          "internalType": "uint256",
          "name": "",
          "type": "uint256"
        }
      ],
      "stateMutability": "view",
      "type": "function"
    }
  ],
  "bytecode": "0x608060405234801561001057600080fd5b50600160008190555060006100296100cd60201b60201c565b905080600160006101000a81548173ffffffffffffffffffffffffffffffffffffffff021916908373ffffffffffffffffffffffffffffffffffffffff1602179055508073ffffffffffffffffffffffffffffffffffffffff16600073ffffffffffffffffffffffffffffffffffffffff167f8be0079c531659141344cd1fd0a4f28419497f9722a3daafe3b4186f6b6457e060405160405180910390a3506100d5565b600033905090565b6130b980620000e56000396000f3fe608060405234801561001057600080fd5b50600436106101005760003560e01c806391a88dfd11610097578063de74e57b11610066578063de74e57b146106ff578063e5c834ce146107b6578063f2fde38b146107e4578063f44451101461082857610100565b806391a88dfd146103de578063bc2b6c6c14610436578063c49785b414610658578063d4b587361461068657610100565b8063715018a6116100d3578063715018a6146103545780637198c7b31461035e57806387ed92d71461038c5780638da5cb5b146103aa57610100565b8063150b7a0214610105578063191e9d7c1461023d578063222367ad146102aa578063701a970d146102c8575b600080fd5b6102086004803603608081101561011b57600080fd5b81019080803573ffffffffffffffffffffffffffffffffffffffff169060200190929190803573ffffffffffffffffffffffffffffffffffffffff169060200190929190803590602001909291908035906020019064010000000081111561018257600080fd5b82018360208201111561019457600080fd5b803590602001918460018302840111640100000000831117156101b657600080fd5b91908080601f016020809104026020016040519081016040528093929190818152602001838380828437600081840152601f19601f820116905080830192505050505050509192919290505050610916565b60405180827bffffffffffffffffffffffffffffffffffffffffffffffffffffffff1916815260200191505060405180910390f35b6102696004803603602081101561025357600080fd5b810190808035906020019092919050505061092a565b604051808573ffffffffffffffffffffffffffffffffffffffff16815260200184815260200183815260200182815260200194505050505060405180910390f35b6102b261098a565b6040518082815260200191505060405180910390f35b610352600480360360c08110156102de57600080fd5b81019080803573ffffffffffffffffffffffffffffffffffffffff16906020019092919080359060200190929190803590602001909291908035906020019092919080359060200190929190803573ffffffffffffffffffffffffffffffffffffffff169060200190929190505050610997565b005b61035c610e47565b005b61038a6004803603602081101561037457600080fd5b8101908080359060200190929190505050610fd2565b005b61039461146c565b6040518082815260200191505060405180910390f35b6103b2611479565b604051808273ffffffffffffffffffffffffffffffffffffffff16815260200191505060405180910390f35b610434600480360360608110156103f457600080fd5b81019080803573ffffffffffffffffffffffffffffffffffffffff16906020019092919080359060200190929190803590602001909291905050506114a3565b005b610656600480360360c081101561044c57600080fd5b810190808035906020019064010000000081111561046957600080fd5b82018360208201111561047b57600080fd5b8035906020019184602083028401116401000000008311171561049d57600080fd5b9091929391929390803590602001906401000000008111156104be57600080fd5b8201836020820111156104d057600080fd5b803590602001918460208302840111640100000000831117156104f257600080fd5b90919293919293908035906020019064010000000081111561051357600080fd5b82018360208201111561052557600080fd5b8035906020019184602083028401116401000000008311171561054757600080fd5b90919293919293908035906020019064010000000081111561056857600080fd5b82018360208201111561057a57600080fd5b8035906020019184602083028401116401000000008311171561059c57600080fd5b9091929391929390803590602001906401000000008111156105bd57600080fd5b8201836020820111156105cf57600080fd5b803590602001918460208302840111640100000000831117156105f157600080fd5b90919293919293908035906020019064010000000081111561061257600080fd5b82018360208201111561062457600080fd5b8035906020019184602083028401116401000000008311171561064657600080fd5b9091929391929390505050611b90565b005b6106846004803603602081101561066e57600080fd5b8101908080359060200190929190505050611ec7565b005b6106fd6004803603602081101561069c57600080fd5b81019080803590602001906401000000008111156106b957600080fd5b8201836020820111156106cb57600080fd5b803590602001918460208302840111640100000000831117156106ed57600080fd5b90919293919293905050506121dd565b005b61072b6004803603602081101561071557600080fd5b8101908080359060200190929190505050612218565b604051808973ffffffffffffffffffffffffffffffffffffffff1681526020018873ffffffffffffffffffffffffffffffffffffffff1681526020018781526020018681526020018581526020018481526020018373ffffffffffffffffffffffffffffffffffffffff16815260200182151581526020019850505050505050505060405180910390f35b6107e2600480360360208110156107cc57600080fd5b81019080803590602001909291905050506122dd565b005b610826600480360360208110156107fa57600080fd5b81019080803573ffffffffffffffffffffffffffffffffffffffff1690602001909291905050506125d2565b005b6109146004803603606081101561083e57600080fd5b81019080803573ffffffffffffffffffffffffffffffffffffffff1690602001909291908035906020019064010000000081111561087b57600080fd5b82018360208201111561088d57600080fd5b803590602001918460208302840111640100000000831117156108af57600080fd5b9091929391929390803590602001906401000000008111156108d057600080fd5b8201836020820111156108e257600080fd5b8035906020019184602083028401116401000000008311171561090457600080fd5b90919293919293905050506127e2565b005b600063150b7a0260e01b9050949350505050565b6003818154811061093a57600080fd5b90600052602060002090600402016000915090508060000160009054906101000a900473ffffffffffffffffffffffffffffffffffffffff16908060010154908060020154908060030154905084565b6000600380549050905090565b60026000541415610a10576040517f08c379a000000000000000000000000000000000000000000000000000000000815260040180806020018281038252601f8152602001807f5265656e7472616e637947756172643a207265656e7472616e742063616c6c0081525060200191505060405180910390fd5b6002600081905550600073ffffffffffffffffffffffffffffffffffffffff168673ffffffffffffffffffffffffffffffffffffffff161415610abb576040517f08c379a00000000000000000000000000000000000000000000000000000000081526004018080602001828103825260138152602001807f696e76616c6964206e667420616464726573730000000000000000000000000081525060200191505060405180910390fd5b60008411610b31576040517f08c379a00000000000000000000000000000000000000000000000000000000081526004018080602001828103825260108152602001807f6174206c65617374206f6e65206461790000000000000000000000000000000081525060200191505060405180910390fd5b8573ffffffffffffffffffffffffffffffffffffffff166342842e0e3330886040518463ffffffff1660e01b8152600401808473ffffffffffffffffffffffffffffffffffffffff1681526020018373ffffffffffffffffffffffffffffffffffffffff1681526020018281526020019350505050600060405180830381600087803b158015610bc057600080fd5b505af1158015610bd4573d6000803e3d6000fd5b5050505060026040518061010001604052803373ffffffffffffffffffffffffffffffffffffffff1681526020018873ffffffffffffffffffffffffffffffffffffffff1681526020018781526020018681526020018581526020018481526020018373ffffffffffffffffffffffffffffffffffffffff16815260200160001515815250908060018154018082558091505060019003906000526020600020906007020160009091909190915060008201518160000160006101000a81548173ffffffffffffffffffffffffffffffffffffffff021916908373ffffffffffffffffffffffffffffffffffffffff16021790555060208201518160010160006101000a81548173ffffffffffffffffffffffffffffffffffffffff021916908373ffffffffffffffffffffffffffffffffffffffff16021790555060408201518160020155606082015181600301556080820151816004015560a0820151816005015560c08201518160060160006101000a81548173ffffffffffffffffffffffffffffffffffffffff021916908373ffffffffffffffffffffffffffffffffffffffff16021790555060e08201518160060160146101000a81548160ff02191690831515021790555050503373ffffffffffffffffffffffffffffffffffffffff16858773ffffffffffffffffffffffffffffffffffffffff167ff78621b6054bdd2a354146453091d58354eda764322baafd48bf94430bb0d48f610e0a60016002805490506128af90919063ffffffff16565b8888886040518085815260200184815260200183815260200182815260200194505050505060405180910390a46001600081905550505050505050565b610e4f6128f9565b73ffffffffffffffffffffffffffffffffffffffff16600160009054906101000a900473ffffffffffffffffffffffffffffffffffffffff1673ffffffffffffffffffffffffffffffffffffffff1614610f11576040517f08c379a00000000000000000000000000000000000000000000000000000000081526004018080602001828103825260208152602001807f4f776e61626c653a2063616c6c6572206973206e6f7420746865206f776e657281525060200191505060405180910390fd5b600073ffffffffffffffffffffffffffffffffffffffff16600160009054906101000a900473ffffffffffffffffffffffffffffffffffffffff1673ffffffffffffffffffffffffffffffffffffffff167f8be0079c531659141344cd1fd0a4f28419497f9722a3daafe3b4186f6b6457e060405160405180910390a36000600160006101000a81548173ffffffffffffffffffffffffffffffffffffffff021916908373ffffffffffffffffffffffffffffffffffffffff160217905550565b6002600054141561104b576040517f08c379a000000000000000000000000000000000000000000000000000000000815260040180806020018281038252601f8152602001807f5265656e7472616e637947756172643a207265656e7472616e742063616c6c0081525060200191505060405180910390fd5b600260008190555060006003828154811061106257fe5b906000526020600020906004020190506000600282600101548154811061108557fe5b906000526020600020906007020190503373ffffffffffffffffffffffffffffffffffffffff168260000160009054906101000a900473ffffffffffffffffffffffffffffffffffffffff1673ffffffffffffffffffffffffffffffffffffffff161461115a576040517f08c379a000000000000000000000000000000000000000000000000000000000815260040180806020018281038252600c8152602001807f6e6f7420626f72726f776572000000000000000000000000000000000000000081525060200191505060405180910390fd5b60006111886201518061117a8560030154426128af90919063ffffffff16565b61290190919063ffffffff16565b90508260020154811115611204576040517f08c379a00000000000000000000000000000000000000000000000000000000081526004018080602001828103825260118152602001807f6475726174696f6e20657863656564656400000000000000000000000000000081525060200191505060405180910390fd5b8160010160009054906101000a900473ffffffffffffffffffffffffffffffffffffffff1673ffffffffffffffffffffffffffffffffffffffff166342842e0e333085600201546040518463ffffffff1660e01b8152600401808473ffffffffffffffffffffffffffffffffffffffff1681526020018373ffffffffffffffffffffffffffffffffffffffff1681526020018281526020019350505050600060405180830381600087803b1580156112bb57600080fd5b505af11580156112cf573d6000803e3d6000fd5b5050505060008260060160146101000a81548160ff0219169083151502179055508260000160006101000a81549073ffffffffffffffffffffffffffffffffffffffff02191690558260010160009055826002016000905582600301600090556113823383600501548460060160009054906101000a900473ffffffffffffffffffffffffffffffffffffffff1673ffffffffffffffffffffffffffffffffffffffff1661294b9092919063ffffffff16565b3373ffffffffffffffffffffffffffffffffffffffff1682600201548360010160009054906101000a900473ffffffffffffffffffffffffffffffffffffffff1673ffffffffffffffffffffffffffffffffffffffff167f7c8a234667643a49a96099891f0e7321f18e1528351a0b97cfc8b036a837240a8660010154888860000160009054906101000a900473ffffffffffffffffffffffffffffffffffffffff16604051808481526020018381526020018273ffffffffffffffffffffffffffffffffffffffff168152602001935050505060405180910390a4505050600160008190555050565b6000600280549050905090565b6000600160009054906101000a900473ffffffffffffffffffffffffffffffffffffffff16905090565b6002600054141561151c576040517f08c379a000000000000000000000000000000000000000000000000000000000815260040180806020018281038252601f8152602001807f5265656e7472616e637947756172643a207265656e7472616e742063616c6c0081525060200191505060405180910390fd5b600260008190555060006002838154811061153357fe5b90600052602060002090600702019050600073ffffffffffffffffffffffffffffffffffffffff168160000160009054906101000a900473ffffffffffffffffffffffffffffffffffffffff1673ffffffffffffffffffffffffffffffffffffffff16141561160a576040517f08c379a00000000000000000000000000000000000000000000000000000000081526004018080602001828103825260158152602001807f636f756c64206e6f742066696e6420616e206e6674000000000000000000000081525060200191505060405180910390fd5b8060060160149054906101000a900460ff161561168f576040517f08c379a00000000000000000000000000000000000000000000000000000000081526004018080602001828103825260148152602001807f6e667420616c726561647920626f72726f77656400000000000000000000000081525060200191505060405180910390fd5b8060000160009054906101000a900473ffffffffffffffffffffffffffffffffffffffff1673ffffffffffffffffffffffffffffffffffffffff168473ffffffffffffffffffffffffffffffffffffffff161415611755576040517f08c379a00000000000000000000000000000000000000000000000000000000081526004018080602001828103825260148152602001807f63616e277420626f72726f77206f776e206e667400000000000000000000000081525060200191505060405180910390fd5b80600301548211156117cf576040517f08c379a00000000000000000000000000000000000000000000000000000000081526004018080602001828103825260158152602001807f6d6178206475726174696f6e206578636565646564000000000000000000000081525060200191505060405180910390fd5b60006117e88260040154846129ed90919063ffffffff16565b905061185f858360000160009054906101000a900473ffffffffffffffffffffffffffffffffffffffff16838560060160009054906101000a900473ffffffffffffffffffffffffffffffffffffffff1673ffffffffffffffffffffffffffffffffffffffff16612a73909392919063ffffffff16565b6118b4853084600501548560060160009054906101000a900473ffffffffffffffffffffffffffffffffffffffff1673ffffffffffffffffffffffffffffffffffffffff16612a73909392919063ffffffff16565b60018260060160146101000a81548160ff021916908315150217905550600360405180608001604052808773ffffffffffffffffffffffffffffffffffffffff16815260200186815260200185815260200142815250908060018154018082558091505060019003906000526020600020906004020160009091909190915060008201518160000160006101000a81548173ffffffffffffffffffffffffffffffffffffffff021916908373ffffffffffffffffffffffffffffffffffffffff16021790555060208201518160010155604082015181600201556060820151816003015550508160010160009054906101000a900473ffffffffffffffffffffffffffffffffffffffff1673ffffffffffffffffffffffffffffffffffffffff166342842e0e308785600201546040518463ffffffff1660e01b8152600401808473ffffffffffffffffffffffffffffffffffffffff1681526020018373ffffffffffffffffffffffffffffffffffffffff1681526020018281526020019350505050600060405180830381600087803b158015611a5157600080fd5b505af1158015611a65573d6000803e3d6000fd5b505050508473ffffffffffffffffffffffffffffffffffffffff1682600201548360010160009054906101000a900473ffffffffffffffffffffffffffffffffffffffff1673ffffffffffffffffffffffffffffffffffffffff167f4a42d077d4cee586fa27e7e0e901b34d4040b57e2a953b17f4bbd4d4a2997b35611afa60016003805490506128af90919063ffffffff16565b888760000160009054906101000a900473ffffffffffffffffffffffffffffffffffffffff164289600401548b8b60050154604051808881526020018781526020018673ffffffffffffffffffffffffffffffffffffffff16815260200185815260200184815260200183815260200182815260200197505050505050505060405180910390a450506001600081905550505050565b898990508c8c905014611c0b576040517f08c379a00000000000000000000000000000000000000000000000000000000081526004018080602001828103825260108152602001807f6e6f7420657175616c206c656e6774680000000000000000000000000000000081525060200191505060405180910390fd5b878790508a8a905014611c86576040517f08c379a00000000000000000000000000000000000000000000000000000000081526004018080602001828103825260108152602001807f6e6f7420657175616c206c656e6774680000000000000000000000000000000081525060200191505060405180910390fd5b858590508888905014611d01576040517f08c379a00000000000000000000000000000000000000000000000000000000081526004018080602001828103825260108152602001807f6e6f7420657175616c206c656e6774680000000000000000000000000000000081525060200191505060405180910390fd5b838390508686905014611d7c576040517f08c379a00000000000000000000000000000000000000000000000000000000081526004018080602001828103825260108152602001807f6e6f7420657175616c206c656e6774680000000000000000000000000000000081525060200191505060405180910390fd5b818190508484905014611df7576040517f08c379a00000000000000000000000000000000000000000000000000000000081526004018080602001828103825260108152602001807f6e6f7420657175616c206c656e6774680000000000000000000000000000000081525060200191505060405180910390fd5b60005b8c8c9050811015611eb857611eab8d8d83818110611e1457fe5b9050602002013573ffffffffffffffffffffffffffffffffffffffff168c8c84818110611e3d57fe5b905060200201358b8b85818110611e5057fe5b905060200201358a8a86818110611e6357fe5b90506020020135898987818110611e7657fe5b90506020020135888888818110611e8957fe5b9050602002013573ffffffffffffffffffffffffffffffffffffffff16610997565b8080600101915050611dfa565b50505050505050505050505050565b60026000541415611f40576040517f08c379a000000000000000000000000000000000000000000000000000000000815260040180806020018281038252601f8152602001807f5265656e7472616e637947756172643a207265656e7472616e742063616c6c0081525060200191505060405180910390fd5b6002600081905550600060038281548110611f5757fe5b9060005260206000209060040201905060006002826001015481548110611f7a57fe5b906000526020600020906007020190503373ffffffffffffffffffffffffffffffffffffffff168160000160009054906101000a900473ffffffffffffffffffffffffffffffffffffffff1673ffffffffffffffffffffffffffffffffffffffff161461204f576040517f08c379a000000000000000000000000000000000000000000000000000000000815260040180806020018281038252600a8152602001807f6e6f74206c656e6465720000000000000000000000000000000000000000000081525060200191505060405180910390fd5b8060060160149054906101000a900460ff166120d3576040517f08c379a00000000000000000000000000000000000000000000000000000000081526004018080602001828103825260108152602001807f6e6674206e6f74206c656e74206f75740000000000000000000000000000000081525060200191505060405180910390fd5b6000612101620151806120f38560030154426128af90919063ffffffff16565b61290190919063ffffffff16565b90508260020154811161217c576040517f08c379a00000000000000000000000000000000000000000000000000000000081526004018080602001828103825260158152602001807f6475726174696f6e206e6f74206578636565646564000000000000000000000081525060200191505060405180910390fd5b6121cf3383600501548460060160009054906101000a900473ffffffffffffffffffffffffffffffffffffffff1673ffffffffffffffffffffffffffffffffffffffff1661294b9092919063ffffffff16565b505050600160008190555050565b60005b82829050811015612213576122068383838181106121fa57fe5b90506020020135610fd2565b80806001019150506121e0565b505050565b6002818154811061222857600080fd5b90600052602060002090600702016000915090508060000160009054906101000a900473ffffffffffffffffffffffffffffffffffffffff16908060010160009054906101000a900473ffffffffffffffffffffffffffffffffffffffff16908060020154908060030154908060040154908060050154908060060160009054906101000a900473ffffffffffffffffffffffffffffffffffffffff16908060060160149054906101000a900460ff16905088565b6000600282815481106122ec57fe5b906000526020600020906007020190503373ffffffffffffffffffffffffffffffffffffffff168160000160009054906101000a900473ffffffffffffffffffffffffffffffffffffffff1673ffffffffffffffffffffffffffffffffffffffff16146123c1576040517f08c379a000000000000000000000000000000000000000000000000000000000815260040180806020018281038252600a8152602001807f6e6f74206c656e6465720000000000000000000000000000000000000000000081525060200191505060405180910390fd5b8060060160149054906101000a900460ff1615612446576040517f08c379a00000000000000000000000000000000000000000000000000000000081526004018080602001828103825260168152602001807f6e667420626f72726f7765642063757272656e746c790000000000000000000081525060200191505060405180910390fd5b8060010160009054906101000a900473ffffffffffffffffffffffffffffffffffffffff1673ffffffffffffffffffffffffffffffffffffffff166342842e0e308360000160009054906101000a900473ffffffffffffffffffffffffffffffffffffffff1684600201546040518463ffffffff1660e01b8152600401808473ffffffffffffffffffffffffffffffffffffffff1681526020018373ffffffffffffffffffffffffffffffffffffffff1681526020018281526020019350505050600060405180830381600087803b15801561252157600080fd5b505af1158015612535573d6000803e3d6000fd5b505050508060000160006101000a81549073ffffffffffffffffffffffffffffffffffffffff02191690558060010160006101000a81549073ffffffffffffffffffffffffffffffffffffffff021916905580600201600090558060030160009055806004016000905580600501600090558060060160006101000a81549073ffffffffffffffffffffffffffffffffffffffff02191690555050565b6125da6128f9565b73ffffffffffffffffffffffffffffffffffffffff16600160009054906101000a900473ffffffffffffffffffffffffffffffffffffffff1673ffffffffffffffffffffffffffffffffffffffff161461269c576040517f08c379a00000000000000000000000000000000000000000000000000000000081526004018080602001828103825260208152602001807f4f776e61626c653a2063616c6c6572206973206e6f7420746865206f776e657281525060200191505060405180910390fd5b600073ffffffffffffffffffffffffffffffffffffffff168173ffffffffffffffffffffffffffffffffffffffff161415612722576040517f08c379a00000000000000000000000000000000000000000000000000000000081526004018080602001828103825260268152602001806130136026913960400191505060405180910390fd5b8073ffffffffffffffffffffffffffffffffffffffff16600160009054906101000a900473ffffffffffffffffffffffffffffffffffffffff1673ffffffffffffffffffffffffffffffffffffffff167f8be0079c531659141344cd1fd0a4f28419497f9722a3daafe3b4186f6b6457e060405160405180910390a380600160006101000a81548173ffffffffffffffffffffffffffffffffffffffff021916908373ffffffffffffffffffffffffffffffffffffffff16021790555050565b81819050848490501461285d576040517f08c379a00000000000000000000000000000000000000000000000000000000081526004018080602001828103825260108152602001807f6e6f7420657175616c206c656e6774680000000000000000000000000000000081525060200191505060405180910390fd5b60005b848490508110156128a75761289a8686868481811061287b57fe5b9050602002013585858581811061288e57fe5b905060200201356114a3565b8080600101915050612860565b505050505050565b60006128f183836040518060400160405280601e81526020017f536166654d6174683a207375627472616374696f6e206f766572666c6f770000815250612b34565b905092915050565b600033905090565b600061294383836040518060400160405280601a81526020017f536166654d6174683a206469766973696f6e206279207a65726f000000000000815250612bf4565b905092915050565b6129e88363a9059cbb60e01b8484604051602401808373ffffffffffffffffffffffffffffffffffffffff16815260200182815260200192505050604051602081830303815290604052907bffffffffffffffffffffffffffffffffffffffffffffffffffffffff19166020820180517bffffffffffffffffffffffffffffffffffffffffffffffffffffffff8381831617835250505050612cba565b505050565b600080831415612a005760009050612a6d565b6000828402905082848281612a1157fe5b0414612a68576040517f08c379a00000000000000000000000000000000000000000000000000000000081526004018080602001828103825260218152602001806130396021913960400191505060405180910390fd5b809150505b92915050565b612b2e846323b872dd60e01b858585604051602401808473ffffffffffffffffffffffffffffffffffffffff1681526020018373ffffffffffffffffffffffffffffffffffffffff1681526020018281526020019350505050604051602081830303815290604052907bffffffffffffffffffffffffffffffffffffffffffffffffffffffff19166020820180517bffffffffffffffffffffffffffffffffffffffffffffffffffffffff8381831617835250505050612cba565b50505050565b6000838311158290612be1576040517f08c379a00000000000000000000000000000000000000000000000000000000081526004018080602001828103825283818151815260200191508051906020019080838360005b83811015612ba6578082015181840152602081019050612b8b565b50505050905090810190601f168015612bd35780820380516001836020036101000a031916815260200191505b509250505060405180910390fd5b5060008385039050809150509392505050565b60008083118290612ca0576040517f08c379a00000000000000000000000000000000000000000000000000000000081526004018080602001828103825283818151815260200191508051906020019080838360005b83811015612c65578082015181840152602081019050612c4a565b50505050905090810190601f168015612c925780820380516001836020036101000a031916815260200191505b509250505060405180910390fd5b506000838581612cac57fe5b049050809150509392505050565b6060612d1c826040518060400160405280602081526020017f5361666545524332303a206c6f772d6c6576656c2063616c6c206661696c65648152508573ffffffffffffffffffffffffffffffffffffffff16612da99092919063ffffffff16565b9050600081511115612da457808060200190516020811015612d3d57600080fd5b8101908080519060200190929190505050612da3576040517f08c379a000000000000000000000000000000000000000000000000000000000815260040180806020018281038252602a81526020018061305a602a913960400191505060405180910390fd5b5b505050565b6060612db88484600085612dc1565b90509392505050565b6060612dcc85612fc7565b612e3e576040517f08c379a000000000000000000000000000000000000000000000000000000000815260040180806020018281038252601d8152602001807f416464726573733a2063616c6c20746f206e6f6e2d636f6e747261637400000081525060200191505060405180910390fd5b600060608673ffffffffffffffffffffffffffffffffffffffff1685876040518082805190602001908083835b60208310612e8e5780518252602082019150602081019050602083039250612e6b565b6001836020036101000a03801982511681845116808217855250505050505090500191505060006040518083038185875af1925050503d8060008114612ef0576040519150601f19603f3d011682016040523d82523d6000602084013e612ef5565b606091505b50915091508115612f0a578092505050612fbf565b600081511115612f1d5780518082602001fd5b836040517f08c379a00000000000000000000000000000000000000000000000000000000081526004018080602001828103825283818151815260200191508051906020019080838360005b83811015612f84578082015181840152602081019050612f69565b50505050905090810190601f168015612fb15780820380516001836020036101000a031916815260200191505b509250505060405180910390fd5b949350505050565b60008060007fc5d2460186f7233c927e7db2dcc703c0e500b653ca82273b7bfad8045d85a47060001b9050833f915080821415801561300957506000801b8214155b9250505091905056fe4f776e61626c653a206e6577206f776e657220697320746865207a65726f2061646472657373536166654d6174683a206d756c7469706c69636174696f6e206f766572666c6f775361666545524332303a204552433230206f7065726174696f6e20646964206e6f742073756363656564a2646970667358221220cc3bd30da23cfd22731bb4d3b01a3f54bda4b2cc3895a3e765fab5702015397764736f6c63430007040033",
  "immutableReferences": {},
  "source": "// SPDX-License-Identifier: MIT\r\npragma solidity ^0.7.0;\r\n\r\nimport \"@openzeppelin/contracts/utils/ReentrancyGuard.sol\";\r\nimport \"@openzeppelin/contracts/access/Ownable.sol\";\r\nimport \"@openzeppelin/contracts/token/ERC20/SafeERC20.sol\";\r\nimport \"@openzeppelin/contracts/token/ERC20/IERC20.sol\";\r\nimport \"@openzeppelin/contracts/token/ERC721/IERC721.sol\";\r\nimport \"@openzeppelin/contracts/token/ERC721/ERC721Holder.sol\";\r\n\r\n\r\ncontract RentNft is ReentrancyGuard, Ownable, ERC721Holder {\r\n  using SafeMath for uint256;\r\n  using SafeERC20 for IERC20;\r\n\r\n  event Lent(\r\n    uint256 lentIndex,\r\n    address indexed nftAddress,\r\n    uint256 indexed tokenId,\r\n    address indexed lender,\r\n    uint256 maxDuration,\r\n    uint256 dailyBorrowPrice,\r\n    uint256 nftPrice\r\n  );\r\n\r\n  event Borrowed(\r\n    uint256 rentIndex,\r\n    address indexed nftAddress,\r\n    uint256 indexed tokenId,\r\n    uint256 lentIndex,\r\n    address indexed borrower,\r\n    address lender,\r\n    uint256 borrowedAt,\r\n    uint256 borrowPrice,\r\n    uint256 actualDuration,\r\n    uint256 nftPrice\r\n  );\r\n\r\n  event Returned(\r\n    uint256 lentIndex,\r\n    uint256 rentIndex,\r\n    address indexed nftAddress,\r\n    uint256 indexed tokenId,\r\n    address indexed borrower,\r\n    address lender\r\n  );\r\n\r\n  // required to avoid the contract level bug\r\n  // Address A lends their NFT\r\n  // Address B borrows the NFT and immediately lends it\r\n  // previously, the collateral would be locked from address A\r\n  // as address B's actions would overwrite the original lender\r\n  struct Listing {\r\n    address lender;\r\n    address nftAddress;\r\n    uint256 tokenId;\r\n    uint256 maxDuration; // max borrow duration in days\r\n    uint256 dailyBorrowPrice; // how much the borrower has to pay irrevocably daily (per nft)\r\n    uint256 nftPrice; // how much lender will receive as collateral if borrower does not return nft in time\r\n    address token; // lender should specify the token they want\r\n    bool isBorrowed;\r\n  }\r\n  Listing[] public listings;\r\n\r\n  struct Borrow {\r\n    address borrower;\r\n    uint256 listingIndex; // corresponding index in listings\r\n    uint256 actualDuration; // actual duration borrower will have the NFT for\r\n    uint256 borrowedAt; // time at which nft is borrowed\r\n  }\r\n  Borrow[] public borrows;\r\n\r\n  constructor() {}\r\n\r\n  // lend one nft that you own to be borrowable on Rent NFT\r\n  function lendOne(\r\n    address _nftAddress,\r\n    uint256 _tokenId,\r\n    uint256 _maxDuration,\r\n    uint256 _dailyBorrowPrice,\r\n    uint256 _nftPrice,\r\n    address _token\r\n  ) public nonReentrant {\r\n    require(_nftAddress != address(0), \"invalid nft address\");\r\n    require(_maxDuration > 0, \"at least one day\");\r\n\r\n    // transfer nft to this contract. will fail if nft wasn't approved\r\n\r\n    IERC721(_nftAddress).safeTransferFrom(msg.sender, address(this), _tokenId);\r\n\r\n    listings.push(\r\n      Listing({\r\n        lender: msg.sender,\r\n        nftAddress: _nftAddress,\r\n        tokenId: _tokenId,\r\n        maxDuration: _maxDuration,\r\n        dailyBorrowPrice: _dailyBorrowPrice,\r\n        nftPrice: _nftPrice,\r\n        token: _token,\r\n        isBorrowed: false\r\n      })\r\n    );\r\n    emit Lent(\r\n      // getting the newly added lent index\r\n      listings.length.sub(1),\r\n      _nftAddress,\r\n      _tokenId,\r\n      msg.sender,\r\n      _maxDuration,\r\n      _dailyBorrowPrice,\r\n      _nftPrice\r\n    );\r\n  }\r\n\r\n  // lend multiple nfts that you own to be borrowable by Rent NFT\r\n  // for gas saving\r\n  function lendMultiple(\r\n    address[] calldata _nftAddresses,\r\n    uint256[] calldata _tokenIds,\r\n    uint256[] calldata _maxDurations,\r\n    uint256[] calldata _dailyBorrowPrice,\r\n    uint256[] calldata _nftPrices,\r\n    address[] calldata _tokens\r\n  ) external {\r\n    require(_nftAddresses.length == _tokenIds.length, \"not equal length\");\r\n    require(_tokenIds.length == _maxDurations.length, \"not equal length\");\r\n    require(\r\n      _maxDurations.length == _dailyBorrowPrice.length,\r\n      \"not equal length\"\r\n    );\r\n    require(_dailyBorrowPrice.length == _nftPrices.length, \"not equal length\");\r\n    require(_nftPrices.length == _tokens.length, \"not equal length\");\r\n\r\n    for (uint256 i = 0; i < _nftAddresses.length; i++) {\r\n      lendOne(\r\n        _nftAddresses[i],\r\n        _tokenIds[i],\r\n        _maxDurations[i],\r\n        _dailyBorrowPrice[i],\r\n        _nftPrices[i],\r\n        _tokens[i]\r\n      );\r\n    }\r\n  }\r\n\r\n  function rentOne(\r\n    address _borrower,\r\n    uint256 _listingIndex,\r\n    uint256 _actualDuration\r\n  ) public nonReentrant {\r\n    Listing storage listing = listings[_listingIndex];\r\n    require(listing.lender != address(0), \"could not find an nft\");\r\n    require(!listing.isBorrowed, \"nft already borrowed\");\r\n    require(_borrower != listing.lender, \"can't borrow own nft\");\r\n    require(_actualDuration <= listing.maxDuration, \"max duration exceeded\");\r\n\r\n    // ! will fail if wasn't approved\r\n    // pay the NFT owner the borrow price\r\n    uint256 borrowPrice = _actualDuration.mul(listing.dailyBorrowPrice);\r\n    IERC20(listing.token).safeTransferFrom(\r\n      _borrower,\r\n      listing.lender,\r\n      borrowPrice\r\n    );\r\n    // collateral, our contracts acts as an escrow\r\n    IERC20(listing.token).safeTransferFrom(\r\n      _borrower,\r\n      address(this),\r\n      listing.nftPrice\r\n    );\r\n\r\n    // save details\r\n    listing.isBorrowed = true;\r\n    borrows.push(\r\n      Borrow({\r\n        borrower: _borrower,\r\n        listingIndex: _listingIndex,\r\n        actualDuration: _actualDuration,\r\n        borrowedAt: block.timestamp\r\n      })\r\n    );\r\n\r\n    // transfer NFT to borrower\r\n    IERC721(listing.nftAddress).safeTransferFrom(\r\n      address(this),\r\n      _borrower,\r\n      listing.tokenId\r\n    );\r\n\r\n    emit Borrowed(\r\n      // getting the newly added borrow index\r\n      borrows.length.sub(1),\r\n      listing.nftAddress,\r\n      listing.tokenId,\r\n      _listingIndex,\r\n      _borrower,\r\n      listing.lender,\r\n      block.timestamp,\r\n      listing.dailyBorrowPrice,\r\n      _actualDuration,\r\n      listing.nftPrice\r\n    );\r\n  }\r\n\r\n  function rentMultiple(\r\n    address _borrower,\r\n    uint256[] calldata _listingIndexes,\r\n    uint256[] calldata _actualDurations\r\n  ) external {\r\n    require(\r\n      _listingIndexes.length == _actualDurations.length,\r\n      \"not equal length\"\r\n    );\r\n\r\n    for (uint256 i = 0; i < _listingIndexes.length; i++) {\r\n      rentOne(_borrower, _listingIndexes[i], _actualDurations[i]);\r\n    }\r\n  }\r\n\r\n  // return NFT back\r\n  function returnNftOne(uint256 _rentalIndex) public nonReentrant {\r\n    Borrow storage borrow = borrows[_rentalIndex];\r\n    Listing storage listing = listings[borrow.listingIndex];\r\n\r\n    require(borrow.borrower == msg.sender, \"not borrower\");\r\n    uint256 durationInDays = block.timestamp.sub(borrow.borrowedAt).div(86400);\r\n    require(durationInDays <= borrow.actualDuration, \"duration exceeded\");\r\n\r\n    // we are returning back to the contract so that the owner does not have to add\r\n    // it multiple times thus incurring the transaction costs\r\n    IERC721(listing.nftAddress).safeTransferFrom(\r\n      msg.sender,\r\n      address(this),\r\n      listing.tokenId\r\n    );\r\n\r\n    // update details\r\n    listing.isBorrowed = false;\r\n    delete borrow.borrower;\r\n    delete borrow.listingIndex;\r\n    delete borrow.actualDuration;\r\n    delete borrow.borrowedAt;\r\n\r\n    // send collateral back for the qty of NFTs returned\r\n    IERC20(listing.token).safeTransfer(msg.sender, listing.nftPrice);\r\n    emit Returned(\r\n      borrow.listingIndex,\r\n      _rentalIndex,\r\n      listing.nftAddress,\r\n      listing.tokenId,\r\n      msg.sender,\r\n      borrow.borrower\r\n    );\r\n  }\r\n\r\n  function returnNftMultiple(uint256[] calldata _rentalIndexes) external {\r\n    for (uint256 i = 0; i < _rentalIndexes.length; i++) {\r\n      returnNftOne(_rentalIndexes[i]);\r\n    }\r\n  }\r\n\r\n  function claimCollateral(uint256 _rentalIndex) public nonReentrant {\r\n    Borrow storage borrow = borrows[_rentalIndex];\r\n    Listing storage listing = listings[borrow.listingIndex];\r\n\r\n    require(listing.lender == msg.sender, \"not lender\");\r\n    require(listing.isBorrowed, \"nft not lent out\");\r\n\r\n    uint256 durationInDays = block.timestamp.sub(borrow.borrowedAt).div(86400);\r\n    require(durationInDays > borrow.actualDuration, \"duration not exceeded\");\r\n\r\n    IERC20(listing.token).safeTransfer(msg.sender, listing.nftPrice);\r\n  }\r\n\r\n  function stopLending(uint256 _listingIndex) public {\r\n    Listing storage listing = listings[_listingIndex];\r\n\r\n    require(listing.lender == msg.sender, \"not lender\");\r\n    require(!listing.isBorrowed, \"nft borrowed currently\");\r\n\r\n    IERC721(listing.nftAddress).safeTransferFrom(\r\n      address(this),\r\n      listing.lender,\r\n      listing.tokenId\r\n    );\r\n\r\n    delete listing.lender;\r\n    delete listing.nftAddress;\r\n    delete listing.tokenId;\r\n    delete listing.maxDuration;\r\n    delete listing.dailyBorrowPrice;\r\n    delete listing.nftPrice;\r\n    delete listing.token;\r\n  }\r\n\r\n  function getListingCount() external view returns (uint256) {\r\n    return listings.length;\r\n  }\r\n\r\n  function getBorrowCount() external view returns (uint256) {\r\n    return borrows.length;\r\n  }\r\n}\r\n",
  "sourcePath": "D:/Coding/Blockchain/Remix_Smart_Contracts/RENTFT/compact-contracts/contracts/RentNft.sol",
  "compiler": {
    "name": "solc",
    "version": "0.7.4+commit.3f05b770.Emscripten.clang"
  },
  "schemaVersion": "3.3.1",
  "updatedAt": "2020-11-17T04:11:13.600Z",
  "devdoc": {
    "kind": "dev",
    "methods": {
      "onERC721Received(address,address,uint256,bytes)": {
        "details": "See {IERC721Receiver-onERC721Received}. Always returns `IERC721Receiver.onERC721Received.selector`."
      },
      "owner()": {
        "details": "Returns the address of the current owner."
      },
      "renounceOwnership()": {
        "details": "Leaves the contract without owner. It will not be possible to call `onlyOwner` functions anymore. Can only be called by the current owner. NOTE: Renouncing ownership will leave the contract without an owner, thereby removing any functionality that is only available to the owner."
      },
      "transferOwnership(address)": {
        "details": "Transfers ownership of the contract to a new account (`newOwner`). Can only be called by the current owner."
      }
    },
    "version": 1
  },
  "userdoc": {
    "kind": "user",
    "methods": {},
    "version": 1
  }
}